:100000000C945E000C9486000C9486000C94860080
:100010000C9486000C9486000C9486000C94860048
:100020000C9486000C9486000C9486000C94860038
:100030000C9486000C9486000C9486000C94860028
:100040000C94CB020C9486000C943B030C94150387
:100050000C9486000C9486000C9486000C94860008
:100060000C9486000C948600000000080002010039
:100070000003040700000000000000000000000072
:10008000250028002B0000000000240027002A0083
:10009000040404040404040402020202020203032E
:1000A0000303030301020408102040800102040836
:1000B00010200102040810206D031C0511241FBE2E
:1000C000CFEFD8E0DEBFCDBF22E0A4E5B1E001C0B4
:1000D0001D92A430B207E1F711E0A0E0B1E0E2EE3A
:1000E000FEE002C005900D92A435B107D9F710E0EB
:1000F000CDE5D0E004C02197FE010E945905CC3522
:10010000D107C9F70E94E3030C9464070C94000024
:1001100090E0FC01EC55FF4F2491FC01E057FF4FAC
:100120008491882399F090E0880F991FFC01EA5789
:10013000FF4FA591B491FC01E458FF4F8591949134
:100140008FB7F894EC91E22BEC938FBF089590E079
:10015000FC01E859FF4F2491FC01EC55FF4F34910D
:10016000FC01E057FF4FE491EE2309F43CC0222349
:1001700039F1233091F038F42130A9F0223001F523
:1001800084B58F7D12C0273091F02830A1F0243043
:10019000B9F4809180008F7D03C0809180008F77BB
:1001A000809380000DC084B58F7784BD09C0809195
:1001B000B0008F7703C08091B0008F7D8093B00036
:1001C000F0E0EE0FFF1FE458FF4FA591B4919FB7E9
:1001D000F894611104C08C913095382302C0EC91E1
:1001E0003E2B3C939FBF08951F93CF93DF93182F0F
:1001F000EB010E948800209711F460E004C0CF3F1B
:10020000D10539F461E0812FDF91CF911F910C94DA
:10021000A700E12FF0E0E859FF4FE491E330F9F057
:1002200048F4E130B9F0E230A1F584B5806284BDD4
:10023000C8BD34C0E730E9F0E83019F1E43049F5E1
:1002400080918000806280938000D0938B00C09367
:100250008A0024C084B5806884BDC7BD1FC080915A
:100260008000806880938000D0938900C0938800CC
:1002700015C08091B00080688093B000C093B30037
:100280000DC08091B00080628093B000C093B40034
:1002900005C0C038D1050CF0B5CFAFCFDF91CF91FD
:1002A0001F9108950895CF92DF92EF92FF920F93DE
:1002B0001F93CF93DF936C017A018B01C0E0D0E0F4
:1002C000CE15DF0581F0D8016D918D01D601ED913C
:1002D000FC910190F081E02DC6010995892B11F068
:1002E0002196EECF7E01C701DF91CF911F910F9133
:1002F000FF90EF90DF90CF90089580E090E0089518
:10030000FC01538D448D252F30E0842F90E0821B1B
:10031000930B541710F0CF96089501970895FC01A0
:10032000918D828D981761F0828DDF01A80FB11D2C
:100330005D968C91928D9F5F9F73928F90E0089550
:100340008FEF9FEF08952FB7F89480915901909106
:100350005A01A0915B01B0915C012FBF80936501B0
:1003600090936601A0936701B09368018DE591E0D9
:100370000E948F0197FF26C02FB7F89480915901F2
:1003800090915A01A0915B01B0915C012FBF409107
:100390006501509166016091670170916801841B4D
:1003A000950BA60BB70B40916101509162016091D2
:1003B00063017091640184179507A607B707B0F22F
:1003C0008FEF9FEF0895FC01918D828D981731F08A
:1003D000828DE80FF11D858D90E008958FEF9FEFDE
:1003E0000895FC01918D228D892F90E0805C9F4FB4
:1003F000821B91098F73992708958DE591E00E94E2
:10040000F10121E0892B09F420E0822F0895FC01FD
:10041000848DDF01A80FB11DA35ABF4F2C91848D8D
:1004200090E001968F739927848FA689B7892C93C2
:10043000A089B1898C91837080648C93938D848D15
:10044000981306C00288F389E02D80818F7D808318
:100450000895EF92FF920F931F93CF93DF93EC01D8
:1004600081E0888F9B8D8C8D981305C0E889F98970
:10047000808185FD26C0F62E0B8D10E00F5F1F4F8B
:100480000F731127E02E8C8DE8120CC00FB607FCFD
:10049000FACFE889F989808185FFF5CFCE010E94E6
:1004A0000702F1CF8B8DFE01E80FF11DE35AFF4FDC
:1004B000F0829FB7F8940B8FEA89FB898081806274
:1004C0000AC09FB7F894EE89FF896083E889F989AB
:1004D00080818370806480839FBF81E090E0DF91A2
:1004E000CF911F910F91FF90EF900895CF93DF93DD
:1004F000EC01888D8823C9F0EA89FB89808185FD1C
:1005000005C0A889B9898C9186FD0FC00FB607FC7C
:10051000F5CF808185FFF2CFA889B9898C9185FFBD
:10052000EDCFCE010E940702E7CFDF91CF91089572
:1005300080E090E0892B29F00E94FD0181110C944C
:10054000000008950E9446070F931F93CF93DF93F7
:10055000EC0188819981009729F02A813B81261737
:10056000370788F48B016F5F7F4F0E9480060097EA
:1005700061F0998388831B830A832C813D81232B1F
:1005800011F4FC01108281E001C080E0DF91CF9185
:100590001F910F9108951F920F920FB60F92112481
:1005A0002F933F938F939F93AF93BF938091590164
:1005B00090915A01A0915B01B0915C01309158017A
:1005C00023E0230F2D3720F40196A11DB11D05C096
:1005D00026E8230F0296A11DB11D20935801809398
:1005E000590190935A01A0935B01B0935C018091F3
:1005F000540190915501A0915601B0915701019677
:10060000A11DB11D8093540190935501A0935601F3
:10061000B0935701BF91AF919F918F913F912F91CF
:100620000F900FBE0F901F9018951F920F920FB64C
:100630000F9211242F933F934F935F936F937F9368
:100640008F939F93AF93BF93EF93FF938DE591E0CB
:100650000E940702FF91EF91BF91AF919F918F91FF
:100660007F916F915F914F913F912F910F900FBEAE
:100670000F901F9018951F920F920FB60F92112492
:100680002F938F939F93EF93FF93E0916D01F091E0
:100690006E018081E0917301F091740182FD12C0BE
:1006A0009081809176018F5F8F73209177018217FF
:1006B00051F0E0917601F0E0E35AFE4F958F809380
:1006C000760101C08081FF91EF919F918F912F91D1
:1006D0000F900FBE0F901F9018951092600110920E
:1006E0005F0188EE93E0A0E0B0E080936101909319
:1006F0006201A0936301B09364018AE091E090935A
:100700005E0180935D0185EC90E090936A01809397
:10071000690184EC90E090936C0180936B0180EC14
:1007200090E090936E0180936D0181EC90E0909346
:10073000700180936F0182EC90E09093720180933E
:10074000710186EC90E09093740180937301109294
:10075000760110927701109278011092790110922F
:10076000FB011092FA011092FD011092FC0110920F
:10077000FF011092FE0160E070E08AEF91E00E94BC
:10078000A4022091FA013091FB01811113C02115BF
:10079000310519F0C9010E94F7051092FB01109272
:1007A000FA011092FF011092FE011092FD011092C9
:1007B000FC0108951092FF011092FE016FE471E0B8
:1007C000C9010C945D07CF93DF93CDB7DEB72897AF
:1007D0000FB6F894DEBF0FBECDBF789484B58260AB
:1007E00084BD84B5816084BD85B5826085BD85B5D5
:1007F000816085BD80916E00816080936E00109253
:1008000081008091810082608093810080918100CD
:10081000816080938100809180008160809380005E
:100820008091B10084608093B1008091B0008160BC
:100830008093B00080917A00846080937A008091E8
:100840007A00826080937A0080917A008160809340
:100850007A0080917A00806880937A001092C100BB
:10086000E0916D01F0916E0182E08083E091690179
:10087000F0916A011082E0916B01F0916C018FECB4
:10088000808310927501E0917101F091720186E010
:100890008083E0916F01F09170018081806180839D
:1008A000E0916F01F0917001808188608083E09118
:1008B0006F01F0917001808180688083E0916F0109
:1008C000F091700180818F7D80838EE00E9488008E
:1008D00044E350E068E171E08DE591E00E9453014E
:1008E00042E050E06DE471E08DE591E00E9453013B
:1008F0008DE591E00E94F101892BD1F31A821982D2
:100900001C821B821E821D8260E070E0CE01019677
:100910000E94A40229813A8181110DC0211531055F
:1009200019F0C9010E94F7051A8219821E821D82E0
:100930001C821B8207C01E821D826FE471E0C90108
:100940000E945D070E94A30197FD1BC08F8318863C
:100950000D811E810F5F1F4FB801CE0101960E94CD
:10096000A402882379F329813A818D819E81BE0179
:10097000695F7F4F820F931F0E945D071E830D8367
:10098000E1CF8091FA019091FB01009739F06981E4
:100990007A8161157105E9F50E94F70589819A81CF
:1009A0009093FB018093FA018B819C819093FD01D0
:1009B0008093FC018D819E819093FF018093FE01C5
:1009C0001A82198289819A810E94F7058091FE011D
:1009D0009091FF01892BD1F00091FA011091FB0158
:1009E00060E571E0C8010E945407892B19F460E0AA
:1009F00070E009C062E571E0C8010E945407892BCC
:100A000029F46FEF70E08EE00E94F4000E949802DB
:100A10005FCF4091FC015091FD012D813E81421735
:100A2000530708F4B9CF0E945D078D819E81909392
:100A3000FF018093FE01C6CF8091FA019091FB01E6
:100A40000C94F7052F923F924F925F926F927F9294
:100A50008F929F92AF92BF92CF92DF92EF92FF92CE
:100A60000F931F93CF93DF93CDB7DEB7CA1BDB0B7A
:100A70000FB6F894DEBF0FBECDBF09942A8839881F
:100A800048885F846E847D848C849B84AA84B98426
:100A9000C884DF80EE80FD800C811B81AA81B98132
:100AA000CE0FD11D0FB6F894DEBF0FBECDBFED0146
:100AB0000895EE0FFF1F0590F491E02D09940F9318
:100AC0001F93CF93DF938230910510F482E090E082
:100AD000E0910202F091030220E030E0A0E0B0E0FB
:100AE000309719F1408151810281138148175907CC
:100AF000C8F08417950769F4109731F012960C939B
:100B0000129713961C9327C00093020210930302BE
:100B100022C02115310519F04217530718F49A0124
:100B2000BD01EF01DF01F801DBCF21153105F9F03F
:100B3000281B390B2430310580F48A819B81611593
:100B4000710521F0FB019383828304C0909303021B
:100B500080930202FE01329644C0FE01E20FF31FB1
:100B60008193919322503109398328833AC020918F
:100B7000000230910102232B41F4209102013091B7
:100B80000301309301022093000220910001309173
:100B900001012115310541F42DB73EB74091040103
:100BA00050910501241B350BE0910002F0910102E8
:100BB000E217F307A0F42E1B3F0B2817390778F034
:100BC000AC014E5F5F4F2417350748F04E0F5F1F93
:100BD00050930102409300028193919302C0E0E0A0
:100BE000F0E0CF01DF91CF911F910F910895CF9346
:100BF000DF93009709F481C0FC01329713821282BF
:100C0000A0910202B0910302109781F420813181FA
:100C1000820F931F2091000230910102281739079B
:100C200051F5F0930102E093000267C0ED0120E06E
:100C300030E0CE17DF0740F44A815B819E01411509
:100C40005105F1F0EA01F5CFD383C2834081518190
:100C5000840F951FC817D90759F488819981840F8B
:100C6000951F0296918380838A819B8193838283DF
:100C70002115310529F4F0930302E09302023DC0EF
:100C8000E901FB83EA8349915991C40FD51FEC1701
:100C9000FD0761F480819181840F951F0296E9011F
:100CA00099838883828193819B838A83E0E0F0E04B
:100CB00012968D919C911397009719F0FD01DC011C
:100CC000F7CF8D919C9111979D012E5F3F4F820F21
:100CD000931F20910002309101022817390769F40F
:100CE000309729F4109203021092020202C013827C
:100CF0001282B0930102A0930002DF91CF91089578
:100D0000A0E0B0E0E6E8F6E00C942605EC010097E0
:100D100021F4CB010E945F05B4C0FC01E60FF71F70
:100D20009C0122503109E217F30708F4A8C0D90149
:100D30000D911C91119706171707B0F0053011059A
:100D400008F49BC0C80104978617970708F495C05C
:100D500002501109061B170B019311936D937C939D
:100D6000CF010E94F70589C05B01A01AB10A4C01AE
:100D7000800E911EA0910202B0910302612C712C91
:100D8000E12CF12C109709F446C08D919C9111979C
:100D9000A815B905B1F56C0142E0C40ED11CCA1406
:100DA000DB0478F14C018A189B08640142E0C40E10
:100DB000D11C1296BC9012971396AC91B5E0CB164D
:100DC000D10440F0B282A38391828082D9016D93D5
:100DD0007C9309C00E5F1F4F800F911FF901918313
:100DE0008083EB2DFA2FE114F10431F0D701139633
:100DF000FC93EE93129741C0F0930302E09302023A
:100E00003CC06816790608F43C017D0112960D90ED
:100E1000BC91A02DB7CF809100029091010288165D
:100E20009906E1F466167706C8F480910001909166
:100E30000101009741F48DB79EB740910401509194
:100E40000501841B950BE817F907C8F4F09301021C
:100E5000E0930002F901718360830FC0CB010E940F
:100E60005F057C01009759F0A801BE010E944B0765
:100E7000CE010E94F705C70104C0CE0102C080E088
:100E800090E0CDB7DEB7EEE00C94420581E090E053
:100E9000F8940C946407FB01DC0102C001900D92F0
:100EA00041505040D8F70895FB01DC018D9101902D
:100EB00080190110D9F3990B0895FB01DC01019011
:100EC0000D920020E1F7089510E0CDE5D0E004C0D8
:100ED000FE010E9459052196CE35D107C9F7F89435
:020EE000FFCF42
:100EE200000004028000000000002902530180017A
:100EF2007602F1018F01E30153696C61686B616EE7
:100F0200206B6574696B2027702720756E74756B72
:100F1200206D656D757461722C2027732720756EA4
:100F220074756B2062657268656E7469000D0A00E3
:040F320070007300D8
:107E0000112484B714BE81FFF0D085E080938100F7
:107E100082E08093C00088E18093C10086E0809377
:107E2000C20080E18093C4008EE0C9D0259A86E02C
:107E300020E33CEF91E0309385002093840096BBD3
:107E4000B09BFECF1D9AA8958150A9F7CC24DD24C4
:107E500088248394B5E0AB2EA1E19A2EF3E0BF2EE7
:107E6000A2D0813461F49FD0082FAFD0023811F036
:107E7000013811F484E001C083E08DD089C08234E0
:107E800011F484E103C0853419F485E0A6D080C0E4
:107E9000853579F488D0E82EFF2485D0082F10E0AE
:107EA000102F00270E291F29000F111F8ED06801E7
:107EB0006FC0863521F484E090D080E0DECF843638
:107EC00009F040C070D06FD0082F6DD080E0C81688
:107ED00080E7D80618F4F601B7BEE895C0E0D1E017
:107EE00062D089930C17E1F7F0E0CF16F0E7DF06D8
:107EF00018F0F601B7BEE89568D007B600FCFDCFD4
:107F0000A601A0E0B1E02C9130E011968C91119780
:107F100090E0982F8827822B932B1296FA010C0160
:107F200087BEE89511244E5F5F4FF1E0A038BF0790
:107F300051F7F601A7BEE89507B600FCFDCF97BE46
:107F4000E89526C08437B1F42ED02DD0F82E2BD052
:107F50003CD0F601EF2C8F010F5F1F4F84911BD097
:107F6000EA94F801C1F70894C11CD11CFA94CF0C13
:107F7000D11C0EC0853739F428D08EE10CD085E9AC
:107F80000AD08FE07ACF813511F488E018D01DD067
:107F900080E101D065CF982F8091C00085FFFCCF94
:107FA0009093C60008958091C00087FFFCCF809118
:107FB000C00084FD01C0A8958091C6000895E0E648
:107FC000F0E098E1908380830895EDDF803219F02E
:107FD00088E0F5DFFFCF84E1DECF1F93182FE3DFCA
:107FE0001150E9F7F2DF1F91089580E0E8DFEE27F6
:047FF000FF270994CA
:027FFE00040479
:0400000300007E007B
:00000001FF
